{
  "_format": "hh3-artifact-1",
  "contractName": "LendingCircleFactory",
  "sourceName": "contracts/LendingCircleFactory.sol",
  "abi": [
    {
      "inputs": [
        {
          "internalType": "address",
          "name": "_creditRegistry",
          "type": "address"
        },
        {
          "internalType": "address payable",
          "name": "_reservePool",
          "type": "address"
        }
      ],
      "stateMutability": "nonpayable",
      "type": "constructor"
    },
    {
      "anonymous": false,
      "inputs": [
        {
          "indexed": true,
          "internalType": "address",
          "name": "creator",
          "type": "address"
        },
        {
          "indexed": true,
          "internalType": "address",
          "name": "circle",
          "type": "address"
        },
        {
          "indexed": false,
          "internalType": "uint256",
          "name": "monthlyContribution",
          "type": "uint256"
        },
        {
          "indexed": false,
          "internalType": "uint256",
          "name": "durationInMonths",
          "type": "uint256"
        },
        {
          "indexed": false,
          "internalType": "uint256",
          "name": "minParticipants",
          "type": "uint256"
        },
        {
          "indexed": false,
          "internalType": "uint256",
          "name": "maxParticipants",
          "type": "uint256"
        }
      ],
      "name": "CircleCreated",
      "type": "event"
    },
    {
      "inputs": [
        {
          "internalType": "uint256",
          "name": "",
          "type": "uint256"
        }
      ],
      "name": "circles",
      "outputs": [
        {
          "internalType": "address",
          "name": "",
          "type": "address"
        }
      ],
      "stateMutability": "view",
      "type": "function"
    },
    {
      "inputs": [
        {
          "internalType": "uint256",
          "name": "monthlyContribution",
          "type": "uint256"
        },
        {
          "internalType": "uint256",
          "name": "durationInMonths",
          "type": "uint256"
        },
        {
          "internalType": "uint256",
          "name": "minParticipants",
          "type": "uint256"
        },
        {
          "internalType": "uint256",
          "name": "maxParticipants",
          "type": "uint256"
        },
        {
          "internalType": "uint256",
          "name": "reservePercentage",
          "type": "uint256"
        },
        {
          "internalType": "enum LendingCircle.ExcessDistributionMethod",
          "name": "excessDistributionMethod",
          "type": "uint8"
        }
      ],
      "name": "createCircle",
      "outputs": [
        {
          "internalType": "address",
          "name": "circle",
          "type": "address"
        }
      ],
      "stateMutability": "nonpayable",
      "type": "function"
    },
    {
      "inputs": [],
      "name": "creditRegistry",
      "outputs": [
        {
          "internalType": "contract CreditRegistry",
          "name": "",
          "type": "address"
        }
      ],
      "stateMutability": "view",
      "type": "function"
    },
    {
      "inputs": [],
      "name": "getCircleCount",
      "outputs": [
        {
          "internalType": "uint256",
          "name": "",
          "type": "uint256"
        }
      ],
      "stateMutability": "view",
      "type": "function"
    },
    {
      "inputs": [
        {
          "internalType": "uint256",
          "name": "offset",
          "type": "uint256"
        },
        {
          "internalType": "uint256",
          "name": "limit",
          "type": "uint256"
        }
      ],
      "name": "getCircles",
      "outputs": [
        {
          "internalType": "address[]",
          "name": "",
          "type": "address[]"
        }
      ],
      "stateMutability": "view",
      "type": "function"
    },
    {
      "inputs": [
        {
          "internalType": "address",
          "name": "user",
          "type": "address"
        }
      ],
      "name": "getUserCircles",
      "outputs": [
        {
          "internalType": "address[]",
          "name": "",
          "type": "address[]"
        }
      ],
      "stateMutability": "view",
      "type": "function"
    },
    {
      "inputs": [
        {
          "internalType": "address",
          "name": "",
          "type": "address"
        }
      ],
      "name": "isCircle",
      "outputs": [
        {
          "internalType": "bool",
          "name": "",
          "type": "bool"
        }
      ],
      "stateMutability": "view",
      "type": "function"
    },
    {
      "inputs": [],
      "name": "reservePool",
      "outputs": [
        {
          "internalType": "contract ReservePool",
          "name": "",
          "type": "address"
        }
      ],
      "stateMutability": "view",
      "type": "function"
    },
    {
      "inputs": [
        {
          "internalType": "address",
          "name": "",
          "type": "address"
        },
        {
          "internalType": "uint256",
          "name": "",
          "type": "uint256"
        }
      ],
      "name": "userCircles",
      "outputs": [
        {
          "internalType": "address",
          "name": "",
          "type": "address"
        }
      ],
      "stateMutability": "view",
      "type": "function"
    }
  ],
  "bytecode": "0x608060405234801561000f575f5ffd5b5060405161440038038061440083398101604081905261002e9161014f565b6001600160a01b03821661009f5760405162461bcd60e51b815260206004820152602d60248201527f4c656e64696e67436972636c65466163746f72793a20496e76616c696420637260448201526c6564697420726567697374727960981b60648201526084015b60405180910390fd5b6001600160a01b0381166101085760405162461bcd60e51b815260206004820152602a60248201527f4c656e64696e67436972636c65466163746f72793a20496e76616c69642072656044820152691cd95c9d99481c1bdbdb60b21b6064820152608401610096565b5f80546001600160a01b039384166001600160a01b03199182161790915560018054929093169116179055610187565b6001600160a01b038116811461014c575f5ffd5b50565b5f5f60408385031215610160575f5ffd5b825161016b81610138565b602084015190925061017c81610138565b809150509250929050565b61426c806101945f395ff3fe608060405234801561000f575f5ffd5b5060043610610090575f3560e01c8063a23b7dd511610063578063a23b7dd514610129578063b015a5e81461013c578063bc5e0f301461014e578063e1f2dfce14610161578063f638059d14610172575f5ffd5b80630266f044146100945780630950dc1f146100c457806388e81d8a146100d7578063a1015a09146100f7575b5f5ffd5b6001546100a7906001600160a01b031681565b6040516001600160a01b0390911681526020015b60405180910390f35b6100a76100d236600461060e565b610185565b6100ea6100e5366004610636565b6101b9565b6040516100bb9190610656565b610119610105366004610636565b60036020525f908152604090205460ff1681565b60405190151581526020016100bb565b6100ea6101373660046106a1565b61022c565b5f546100a7906001600160a01b031681565b6100a761015c3660046106c1565b610339565b6002546040519081526020016100bb565b6100a76101803660046106d8565b610361565b6004602052815f5260405f20818154811061019e575f80fd5b5f918252602090912001546001600160a01b03169150829050565b6001600160a01b0381165f9081526004602090815260409182902080548351818402810184019094528084526060939283018282801561022057602002820191905f5260205f20905b81546001600160a01b03168152600190910190602001808311610202575b50505050509050919050565b60025460609080841061024e575050604080515f815260208101909152610333565b5f6102598486610754565b9050818111156102665750805b5f6102718683610767565b90505f8167ffffffffffffffff81111561028d5761028d61072c565b6040519080825280602002602001820160405280156102b6578160200160208202803683370190505b5090505f5b8281101561032c5760026102cf828a610754565b815481106102df576102df61077a565b905f5260205f20015f9054906101000a90046001600160a01b031682828151811061030c5761030c61077a565b6001600160a01b03909216602092830291909101909101526001016102bb565b5093505050505b92915050565b60028181548110610348575f80fd5b5f918252602090912001546001600160a01b0316905081565b5f805460405163d3dd2bdf60e01b815233600482015282916001600160a01b03169063d3dd2bdf90602401602060405180830381865afa1580156103a7573d5f5f3e3d5ffd5b505050506040513d601f19601f820116820180604052508101906103cb919061078e565b905061012c81101561044b576040805162461bcd60e51b81526020600482015260248101919091527f4c656e64696e67436972636c65466163746f72793a20496e737566666963696560448201527f6e74206372656469742073636f726520746f2063726561746520636972636c65606482015260840160405180910390fd5b5f805460015460405133928c928c928c928c928c928c926001600160a01b03908116921690610479906105e6565b61048b999897969594939291906107a5565b604051809103905ff0801580156104a4573d5f5f3e3d5ffd5b506002805460018082019092557f405787fa12a823e0f2b7631cc41b3ba8828b3321ca811111fa75cd3aa3bb5ace0180546001600160a01b03199081166001600160a01b038581169182179093555f818152600360209081526040808320805460ff19168817905533835260048083528184208054808a0182559085529290932090910180549094168317909355935491516350820dcf60e01b81529384015292955085935091909116906350820dcf906024015f604051808303815f87803b15801561056f575f5ffd5b505af1158015610581573d5f5f3e3d5ffd5b5050604080518c8152602081018c90529081018a9052606081018990526001600160a01b03861692503391507fb3479321446d967d1501c69cab9d1c0738ce9131c90c2d5a0448ee696f67e0c79060800160405180910390a350509695505050505050565b613a168061082183390190565b80356001600160a01b0381168114610609575f5ffd5b919050565b5f5f6040838503121561061f575f5ffd5b610628836105f3565b946020939093013593505050565b5f60208284031215610646575f5ffd5b61064f826105f3565b9392505050565b602080825282518282018190525f918401906040840190835b818110156106965783516001600160a01b031683526020938401939092019160010161066f565b509095945050505050565b5f5f604083850312156106b2575f5ffd5b50508035926020909101359150565b5f602082840312156106d1575f5ffd5b5035919050565b5f5f5f5f5f5f60c087890312156106ed575f5ffd5b863595506020870135945060408701359350606087013592506080870135915060a08701356002811061071e575f5ffd5b809150509295509295509295565b634e487b7160e01b5f52604160045260245ffd5b634e487b7160e01b5f52601160045260245ffd5b8082018082111561033357610333610740565b8181038181111561033357610333610740565b634e487b7160e01b5f52603260045260245ffd5b5f6020828403121561079e575f5ffd5b5051919050565b6001600160a01b038a1681526020810189905260408101889052606081018790526080810186905260a081018590526101208101600285106107f557634e487b7160e01b5f52602160045260245ffd5b60c08201949094526001600160a01b0392831660e0820152911661010090910152969550505050505056fe608060405262093a80601155348015610016575f5ffd5b50604051613a16380380613a1683398101604081905261003591610725565b6001600160a01b0389166100905760405162461bcd60e51b815260206004820152601e60248201527f4c656e64696e67436972636c653a20496e76616c69642063726561746f72000060448201526064015b60405180910390fd5b5f88116100fa5760405162461bcd60e51b815260206004820152603260248201527f4c656e64696e67436972636c653a20436f6e747269627574696f6e206d75737460448201527102062652067726561746572207468616e20360741b6064820152608401610087565b5f87116101605760405162461bcd60e51b815260206004820152602e60248201527f4c656e64696e67436972636c653a204475726174696f6e206d7573742062652060448201526d067726561746572207468616e20360941b6064820152608401610087565b60028610156101c85760405162461bcd60e51b815260206004820152602e60248201527f4c656e64696e67436972636c653a204d696e696d756d2032207061727469636960448201526d1c185b9d1cc81c995c5d5a5c995960921b6064820152608401610087565b858510156102225760405162461bcd60e51b815260206004820152602160248201527f4c656e64696e67436972636c653a204d6178206d757374206265203e3d206d696044820152603760f91b6064820152608401610087565b606484111561028c5760405162461bcd60e51b815260206004820152603060248201527f4c656e64696e67436972636c653a20526573657276652070657263656e74616760448201526f065206d757374206265203c3d203130360841b6064820152608401610087565b6001600160a01b0382166102f15760405162461bcd60e51b815260206004820152602660248201527f4c656e64696e67436972636c653a20496e76616c69642063726564697420726560448201526567697374727960d01b6064820152608401610087565b6001600160a01b0381166103535760405162461bcd60e51b815260206004820152602360248201527f4c656e64696e67436972636c653a20496e76616c6964207265736572766520706044820152621bdbdb60ea1b6064820152608401610087565b5f80546001600160a01b038b166001600160a01b031991821681179092556001805490911690911781556002899055600388905560048790556005869055600685905560078054859260ff199091169083818111156103b4576103b46107ce565b0217905550600c80546001600160a01b03199081166001600160a01b03858116918217909355600d8054909216848416179091556007805461ff00191690555f600881905560405163d3dd2bdf60e01b8152928c1660048401529163d3dd2bdf90602401602060405180830381865afa158015610433573d5f5f3e3d5ffd5b505050506040513d601f19601f8201168201806040525081019061045791906107e2565b905061046b670de0b6b3a7640000826107f9565b8911156104d35760405162461bcd60e51b815260206004820152603060248201527f4c656e64696e67436972636c653a20436f6e747269627574696f6e206578636560448201526f19591cc818dc99591a5d081b1a5b5a5d60821b6064820152608401610087565b6104de6001826107f9565b8611156105535760405162461bcd60e51b815260206004820152603460248201527f4c656e64696e67436972636c653a204d6178207061727469636970616e74732060448201527f6578636565647320637265646974206c696d69740000000000000000000000006064820152608401610087565b610565678ac7230489e80000826107f9565b88610570888c6107f9565b61057a91906107f9565b11156105e35760405162461bcd60e51b815260206004820152603260248201527f4c656e64696e67436972636c653a20546f74616c206578706f7375726520657860448201527118d959591cc818dc99591a5d081b1a5b5a5d60721b6064820152608401610087565b6001600160a01b038a81165f818152600e602052604080822080546001600160a81b0319168417600160a01b179055600f805460018181018355919093527f8d1108e10bcb7c27dddfc02ed9d693a074039d026cf4ea4240b40f7d581ac80290920180546001600160a01b03191684179055600991909155600c54905163710cf95b60e01b815260048101929092529091169063710cf95b906024015f604051808303815f87803b158015610696575f5ffd5b505af11580156106a8573d5f5f3e3d5ffd5b5050604080518c8152602081018c90529081018a9052606081018990526001600160a01b038d1692507fd942460b8f7e53e19fc98e5201df12b1391b5bdf8de043b1aafc0406267cc562915060800160405180910390a250505050505050505050610822565b6001600160a01b0381168114610722575f5ffd5b50565b5f5f5f5f5f5f5f5f5f6101208a8c03121561073e575f5ffd5b89516107498161070e565b809950505f60208b01519050809850505f60408b01519050809750505f60608b01519050809650505f60808b01519050809550505f60a08b015190508094505060c08a01516002811061079a575f5ffd5b60e08b01519093506107ab8161070e565b6101008b01519092506107bd8161070e565b809150509295985092959850929598565b634e487b7160e01b5f52602160045260245ffd5b5f602082840312156107f2575f5ffd5b5051919050565b808202811582820484141761081c57634e487b7160e01b5f52601160045260245ffd5b92915050565b6131e78061082f5f395ff3fe608060405260043610610220575f3560e01c806353edad651161011e578063b015a5e8116100a8578063cd4544f21161006d578063cd4544f214610724578063d738c9c614610743578063f700c82914610757578063f76f05b11461076c578063f8b983c714610787575f5ffd5b8063b015a5e81461069e578063bdc170a4146106bd578063c264a063146106dc578063c3acaf62146106f0578063cbea23fa14610705575f5ffd5b8063862a4d47116100ee578063862a4d471461063657806396365d441461064b578063a26dbf2614610660578063a54cd4f714610675578063aba67e881461068a575f5ffd5b806353edad65146105d257806367097a4b146105e75780636b6adaff146105fc57806370feb64714610617575f5ffd5b806321814f90116101aa578063360a2bcb1161016f578063360a2bcb146104f05780633e39a7a51461050357806340a820831461052f5780634129b2c914610577578063441f7590146105b3575f5ffd5b806321814f90146103fe57806324924bf71461041d578063272526ab14610432578063319b16061461045857806334105238146104c1575f5ffd5b806305ea879c116101f057806305ea879c146102e057806309e69ede146102ff5780630a009097146103955780630e6fdaa1146103b4578063200d2ed2146103d3575f5ffd5b80630266f0441461024257806302a251a31461027e57806302d05d3f146102a157806302d947ef146102bf575f5ffd5b3661023e5734600a5f8282546102369190612e0b565b925050819055005b5f5ffd5b34801561024d575f5ffd5b50600d54610261906001600160a01b031681565b6040516001600160a01b0390911681526020015b60405180910390f35b348015610289575f5ffd5b5061029360115481565b604051908152602001610275565b3480156102ac575f5ffd5b505f54610261906001600160a01b031681565b3480156102ca575f5ffd5b506102de6102d9366004612e39565b61079b565b005b3480156102eb575f5ffd5b506102936102fa366004612e39565b610b8b565b34801561030a575f5ffd5b5061035d610319366004612e63565b600e6020525f9081526040902080546001909101546001600160a01b0382169160ff600160a01b8204811692600160a81b8304821692600160b01b90049091169085565b604080516001600160a01b0390961686529315156020860152911515928401929092529015156060830152608082015260a001610275565b3480156103a0575f5ffd5b50600154610261906001600160a01b031681565b3480156103bf575f5ffd5b506102616103ce366004612e83565b610bbb565b3480156103de575f5ffd5b506007546103f190610100900460ff1681565b6040516102759190612eae565b348015610409575f5ffd5b506102de610418366004612e83565b610be3565b348015610428575f5ffd5b5061029360055481565b34801561043d575f5ffd5b5060075461044b9060ff1681565b6040516102759190612ec8565b348015610463575f5ffd5b5061049d610472366004612e83565b60106020525f90815260409020805460019091015460ff81169061010090046001600160a01b031683565b6040805193845291151560208401526001600160a01b031690820152606001610275565b3480156104cc575f5ffd5b506104e06104db366004612e83565b611323565b6040519015158152602001610275565b6102de6104fe366004612e83565b61134f565b34801561050e575f5ffd5b5061052261051d366004612e83565b61178c565b6040516102759190612edc565b34801561053a575f5ffd5b506104e0610549366004612f27565b6001600160a01b03919091165f908152600e6020908152604080832093835260029093019052205460ff1690565b348015610582575f5ffd5b50610261610591366004612e83565b5f9081526010602052604090206001015461010090046001600160a01b031690565b3480156105be575f5ffd5b506102de6105cd366004612e63565b6117f8565b3480156105dd575f5ffd5b5061029360025481565b3480156105f2575f5ffd5b5061029360035481565b348015610607575f5ffd5b50610293678ac7230489e8000081565b348015610622575f5ffd5b506102de610631366004612f27565b611a7b565b348015610641575f5ffd5b5061029360085481565b348015610656575f5ffd5b50610293600a5481565b34801561066b575f5ffd5b5061029360095481565b348015610680575f5ffd5b5061029360045481565b348015610695575f5ffd5b50610293600181565b3480156106a9575f5ffd5b50600c54610261906001600160a01b031681565b3480156106c8575f5ffd5b506102de6106d7366004612f27565b611c6f565b3480156106e7575f5ffd5b506102de612099565b3480156106fb575f5ffd5b50610293600b5481565b348015610710575f5ffd5b506102de61071f366004612e63565b61227f565b34801561072f575f5ffd5b506102de61073e366004612f27565b6123ef565b34801561074e575f5ffd5b506102de612549565b348015610762575f5ffd5b5061029360065481565b348015610777575f5ffd5b50610293670de0b6b3a764000081565b348015610792575f5ffd5b506102936127f3565b335f908152600e6020526040902054600160a01b900460ff1680156107d65750335f908152600e6020526040902054600160b01b900460ff16155b6107fb5760405162461bcd60e51b81526004016107f290612f4f565b60405180910390fd5b6001600754610100900460ff16600381111561081957610819612e9a565b146108365760405162461bcd60e51b81526004016107f290612f9f565b5f82815260106020526040902080546108aa5760405162461bcd60e51b815260206004820152603060248201527f4c656e64696e67436972636c653a204e6f2070726f706f73616c20657869737460448201526f0e640ccdee440e8d0d2e640dadedce8d60831b60648201526084016107f2565b805442106108ca5760405162461bcd60e51b81526004016107f290612fe3565b335f90815260048201602052604090206003015460ff161561092e5760405162461bcd60e51b815260206004820152601c60248201527f4c656e64696e67436972636c653a20416c726561647920766f7465640000000060448201526064016107f2565b6001600160a01b0382165f90815260028201602052604090206003015460ff1661099a5760405162461bcd60e51b815260206004820181905260248201527f4c656e64696e67436972636c653a20496e76616c69642063616e64696461746560448201526064016107f2565b600c5460405163d3dd2bdf60e01b81523360048201525f916001600160a01b03169063d3dd2bdf90602401602060405180830381865afa1580156109e0573d5f5f3e3d5ffd5b505050506040513d601f19601f82011682018060405250810190610a049190613025565b90505f8111610a605760405162461bcd60e51b815260206004820152602260248201527f4c656e64696e67436972636c653a20496e76616c696420766f746520776569676044820152611a1d60f21b60648201526084016107f2565b60408051608081018252338082526001600160a01b0386811660208085018281528587018881526001606088018181525f88815260048d0186528a812099518a549089166001600160a01b0319918216178b5594518a84018054919099169086161790975591516002808a019190915591516003909801805498151560ff199099169890981790975560058a0180549788018155855282852090960180549091169094179093558152828601909152919091200154610b20908290612e0b565b6001600160a01b0384165f81815260028086016020526040918290200192909255905133907f1ed37da89ec73264fe3ff50d20d92f19845180819831a4f5dbfb4bf282f0fa5790610b7d9085908990918252602082015260400190565b60405180910390a350505050565b5f8281526010602090815260408083206001600160a01b0385168452600290810190925290912001545b92915050565b600f8181548110610bca575f80fd5b5f918252602090912001546001600160a01b0316905081565b60125460ff1615610c365760405162461bcd60e51b815260206004820152601d60248201527f4c656e64696e67436972636c653a205265656e7472616e742063616c6c00000060448201526064016107f2565b6012805460ff19166001908117909155600754610100900460ff166003811115610c6257610c62612e9a565b14610c7f5760405162461bcd60e51b81526004016107f290612f9f565b5f8181526010602052604090208054610ce45760405162461bcd60e51b815260206004820152602160248201527f4c656e64696e67436972636c653a204e6f2070726f706f73616c2065786973746044820152607360f81b60648201526084016107f2565b8054421015610d445760405162461bcd60e51b815260206004820152602660248201527f4c656e64696e67436972636c653a20566f74696e6720706572696f64206e6f7460448201526508195b99195960d21b60648201526084016107f2565b600181015460ff1615610da85760405162461bcd60e51b815260206004820152602660248201527f4c656e64696e67436972636c653a205061796f757420616c72656164792065786044820152651958dd5d195960d21b60648201526084016107f2565b6008548214610e135760405162461bcd60e51b815260206004820152603160248201527f4c656e64696e67436972636c653a2043616e206f6e6c792065786563757465206044820152700ccdee440c6eae4e4cadce840dadedce8d607b1b60648201526084016107f2565b5f610e1d83612801565b90506001600160a01b038116610e755760405162461bcd60e51b815260206004820152601e60248201527f4c656e64696e67436972636c653a204e6f2076616c69642077696e6e6572000060448201526064016107f2565b6001600160a01b0381165f908152600e6020526040902054600160a01b900460ff16610ef35760405162461bcd60e51b815260206004820152602760248201527f4c656e64696e67436972636c653a20526563697069656e74206d7573742062656044820152662061637469766560c81b60648201526084016107f2565b6001600160a01b0381165f908152600e6020526040902054600160a81b900460ff1615610f7b5760405162461bcd60e51b815260206004820152603060248201527f4c656e64696e67436972636c653a20526563697069656e7420616c726561647960448201526f081c9958d95a5d9959081c185e5bdd5d60821b60648201526084016107f2565b6001600160a01b0381165f908152600e6020526040902054600160b01b900460ff1615610ff95760405162461bcd60e51b815260206004820152602660248201527f4c656e64696e67436972636c653a20526563697069656e7420697320696e20646044820152651959985d5b1d60d21b60648201526084016107f2565b5f611002612991565b90505f60646006546064611016919061303c565b600254611023919061304f565b61102d9190613066565b90505f61103a838361304f565b90505f81905080600a5410156110cf575f600a5482611059919061303c565b600d54604051627b8a6760e11b8152600481018390523060248201529192506001600160a01b03169062f714ce906044015f604051808303815f87803b1580156110a1575f5ffd5b505af11580156110b3573d5f5f3e3d5ffd5b5050505080600a5f8282546110c89190612e0b565b9091555050505b80600a5410156111365760405162461bcd60e51b815260206004820152602c60248201527f4c656e64696e67436972636c653a20496e73756666696369656e742066756e6460448201526b1cc8199bdc881c185e5bdd5d60a21b60648201526084016107f2565b6001600160a01b0385165f908152600e60205260408120805460ff60a81b1916600160a81b179055600a805483929061117090849061303c565b9091555050600186810180546001600160a81b0319166101006001600160a01b0389169081029190911790921790556040515f919083908381818185875af1925050503d805f81146111dd576040519150601f19603f3d011682016040523d82523d5f602084013e6111e2565b606091505b50509050806112415760405162461bcd60e51b815260206004820152602560248201527f4c656e64696e67436972636c653a205061796f7574207472616e736665722066604482015264185a5b195960da1b60648201526084016107f2565b600c546040516353c999ab60e11b81526001600160a01b0388811660048301529091169063a7933356906024015f604051808303815f87803b158015611285575f5ffd5b505af1158015611297573d5f5f3e3d5ffd5b505050506112a488612a53565b60088054905f6112b383613085565b9190505550600354600854106112cb576112cb612bdd565b60408051838152602081018a90526001600160a01b038816917f63f55f28cc9b6363ecdbaa936809f86425d5709291a6d3e58910f0d9fc4b390f910160405180910390a250506012805460ff19169055505050505050565b5f818152601060205260408120544210801590610bb55750505f90815260106020526040902054151590565b335f908152600e6020526040902054600160a01b900460ff16801561138a5750335f908152600e6020526040902054600160b01b900460ff16155b6113a65760405162461bcd60e51b81526004016107f290612f4f565b6001600754610100900460ff1660038111156113c4576113c4612e9a565b146113e15760405162461bcd60e51b81526004016107f290612f9f565b60085481146114325760405162461bcd60e51b815260206004820152601c60248201527f4c656e64696e67436972636c653a20496e76616c6964206d6f6e74680000000060448201526064016107f2565b335f908152600e6020908152604080832084845260020190915290205460ff16156114b25760405162461bcd60e51b815260206004820152602a60248201527f4c656e64696e67436972636c653a20416c7265616479207061696420666f72206044820152690e8d0d2e640dadedce8d60b31b60648201526084016107f2565b600254600160075460ff1660018111156114ce576114ce612e9a565b1480156114eb5750335f908152600e602052604090206001015415155b1561155057335f908152600e602052604090206001015481811061152f57611513828261303c565b335f908152600e6020526040812060010191909155915061154e565b611539818361303c565b335f908152600e602052604081206001015591505b505b8034146115b45760405162461bcd60e51b815260206004820152602c60248201527f4c656e64696e67436972636c653a20496e636f727265637420636f6e7472696260448201526b1d5d1a5bdb88185b5bdd5b9d60a21b60648201526084016107f2565b335f908152600e60209081526040808320858452600281018352818420805460ff1916600117905560030190915281204290556006546064906115f7903461304f565b6116019190613066565b90505f61160e823461303c565b905080600a5f8282546116219190612e0b565b9250508190555081600b5f8282546116399190612e0b565b909155505081156116f457600d546040515f916001600160a01b03169084908381818185875af1925050503d805f811461168e576040519150601f19603f3d011682016040523d82523d5f602084013e611693565b606091505b50509050806116f25760405162461bcd60e51b815260206004820152602560248201527f4c656e64696e67436972636c653a2052657365727665206465706f7369742066604482015264185a5b195960da1b60648201526084016107f2565b505b600c546040516353c999ab60e11b81523360048201526001600160a01b039091169063a7933356906024015f604051808303815f87803b158015611736575f5ffd5b505af1158015611748573d5f5f3e3d5ffd5b5050604080518781523460208201523393507f5dc1fe5ab986a852c4eda8e8bb94247d13307065c593fb83f1a09be27367938292500160405180910390a250505050565b5f818152601060209081526040918290206003018054835181840281018401909452808452606093928301828280156117ec57602002820191905f5260205f20905b81546001600160a01b031681526001909101906020018083116117ce575b50505050509050919050565b6001546001600160a01b031633146118225760405162461bcd60e51b81526004016107f29061309d565b5f600754610100900460ff16600381111561183f5761183f612e9a565b1461185c5760405162461bcd60e51b81526004016107f2906130e5565b6001600160a01b038082165f818152600e6020526040902054909116146118955760405162461bcd60e51b81526004016107f290613130565b6001600160a01b0381165f908152600e6020526040902054600160a01b900460ff161561191c5760405162461bcd60e51b815260206004820152602f60248201527f4c656e64696e67436972636c653a2043616e6e6f742072656a6563742061637460448201526e1a5d99481c185c9d1a58da5c185b9d608a1b60648201526084016107f2565b5f5b600f54811015611a1257816001600160a01b0316600f828154811061194557611945613174565b5f918252602090912001546001600160a01b031603611a0a57600f805461196e9060019061303c565b8154811061197e5761197e613174565b5f91825260209091200154600f80546001600160a01b0390921691839081106119a9576119a9613174565b905f5260205f20015f6101000a8154816001600160a01b0302191690836001600160a01b03160217905550600f8054806119e5576119e5613188565b5f8281526020902081015f1990810180546001600160a01b0319169055019055611a12565b60010161191e565b5060098054905f611a228361319c565b90915550506001600160a01b0381165f818152600e602052604080822080546001600160b81b0319168155600101829055517faa8584ab504b594a7553669e28e8cc2f46d614c61361d558313d3365fe8489759190a250565b6001546001600160a01b03163314611aa55760405162461bcd60e51b81526004016107f29061309d565b6001600754610100900460ff166003811115611ac357611ac3612e9a565b14611ae05760405162461bcd60e51b81526004016107f290612f9f565b6001600160a01b0382165f908152600e6020526040902054600160a01b900460ff16611b1e5760405162461bcd60e51b81526004016107f290613130565b6001600160a01b0382165f908152600e6020908152604080832084845260020190915290205460ff1615611ba45760405162461bcd60e51b815260206004820152602760248201527f4c656e64696e67436972636c653a205061796d656e7420616c726561647920726044820152661958dbdc99195960ca1b60648201526084016107f2565b6001600160a01b038281165f818152600e6020908152604080832086845260020190915290819020805460ff19166001179055600c549051632e1336bd60e11b8152600481019290925290911690635c266d7a906024015f604051808303815f87803b158015611c12575f5ffd5b505af1158015611c24573d5f5f3e3d5ffd5b50505050816001600160a01b03167f21d163b78d8a4785f7817b046ad2bf108f439311418f244f1486c42ccf08367f82604051611c6391815260200190565b60405180910390a25050565b335f908152600e6020526040902054600160a01b900460ff168015611caa5750335f908152600e6020526040902054600160b01b900460ff16155b611cc65760405162461bcd60e51b81526004016107f290612f4f565b6001600754610100900460ff166003811115611ce457611ce4612e9a565b14611d015760405162461bcd60e51b81526004016107f290612f9f565b6008548114611d6c5760405162461bcd60e51b815260206004820152603160248201527f4c656e64696e67436972636c653a2043616e206f6e6c792070726f706f7365206044820152700ccdee440c6eae4e4cadce840dadedce8d607b1b60648201526084016107f2565b6001600160a01b0382165f908152600e6020526040902054600160a01b900460ff16611dea5760405162461bcd60e51b815260206004820152602760248201527f4c656e64696e67436972636c653a2043616e646964617465206d7573742062656044820152662061637469766560c81b60648201526084016107f2565b6001600160a01b0382165f908152600e6020526040902054600160a81b900460ff1615611e725760405162461bcd60e51b815260206004820152603060248201527f4c656e64696e67436972636c653a2043616e64696461746520616c726561647960448201526f081c9958d95a5d9959081c185e5bdd5d60821b60648201526084016107f2565b6001600160a01b0382165f908152600e6020526040902054600160b01b900460ff1615611ef05760405162461bcd60e51b815260206004820152602660248201527f4c656e64696e67436972636c653a2043616e64696461746520697320696e20646044820152651959985d5b1d60d21b60648201526084016107f2565b5f8181526010602052604081208054909103611f2257601154611f139042612e0b565b815560018101805460ff191690555b80544210611f425760405162461bcd60e51b81526004016107f290612fe3565b6001600160a01b0383165f90815260028201602052604090206003015460ff1615611fc15760405162461bcd60e51b815260206004820152602960248201527f4c656e64696e67436972636c653a2043616e64696461746520616c7265616479604482015268081c1c9bdc1bdcd95960ba1b60648201526084016107f2565b604080516080810182526001600160a01b038581168083523360208085018281525f86880181815260016060890181815287845260028c810187528b85209a518b546001600160a01b0319908116918c16919091178c5595518b84018054881691909b1617909955915197890197909755516003978801805460ff1916911515919091179055958801805495860181558652948190209093018054909416821790935592518581527f7381ffe63709965c8160c760d15c5fee656feac0fade457f31f71f4e0682b406910160405180910390a3505050565b335f908152600e6020526040902054600160a01b900460ff1680156120d45750335f908152600e6020526040902054600160b01b900460ff16155b6120f05760405162461bcd60e51b81526004016107f290612f4f565b5f60075460ff16600181111561210857612108612e9a565b146121645760405162461bcd60e51b815260206004820152602660248201527f4c656e64696e67436972636c653a20457863657373206e6f7420776974686472604482015265617761626c6560d01b60648201526084016107f2565b335f908152600e60205260409020600101546121d05760405162461bcd60e51b815260206004820152602560248201527f4c656e64696e67436972636c653a204e6f2062616c616e636520746f20776974604482015264686472617760d81b60648201526084016107f2565b335f818152600e6020526040808220600101805490839055905190929083908381818185875af1925050503d805f8114612225576040519150601f19603f3d011682016040523d82523d5f602084013e61222a565b606091505b505090508061227b5760405162461bcd60e51b815260206004820181905260248201527f4c656e64696e67436972636c653a205769746864726177616c206661696c656460448201526064016107f2565b5050565b6001546001600160a01b031633146122a95760405162461bcd60e51b81526004016107f29061309d565b5f600754610100900460ff1660038111156122c6576122c6612e9a565b146122e35760405162461bcd60e51b81526004016107f2906130e5565b6001600160a01b038082165f818152600e60205260409020549091161461231c5760405162461bcd60e51b81526004016107f290613130565b6001600160a01b0381165f908152600e6020526040902054600160a01b900460ff161561238b5760405162461bcd60e51b815260206004820152601f60248201527f4c656e64696e67436972636c653a20416c726561647920617070726f7665640060448201526064016107f2565b6001600160a01b0381165f818152600e6020526040808220805460ff60a01b1916600160a01b179055517f9e26c09494a9d9524f8aeea5fd66ba8bb79f6b0cfccbdf33eebcb54598cd97d79190a2600454600954106123ec576123ec612d4d565b50565b6001546001600160a01b031633146124195760405162461bcd60e51b81526004016107f29061309d565b6001600754610100900460ff16600381111561243757612437612e9a565b146124545760405162461bcd60e51b81526004016107f290612f9f565b6001600160a01b0382165f908152600e6020526040902054600160a01b900460ff166124925760405162461bcd60e51b81526004016107f290613130565b6001600160a01b038281165f818152600e602052604090819020805460ff60b01b1916600160b01b179055600c54905163237dcd4b60e21b8152600481019290925290911690638df7352c906024015f604051808303815f87803b1580156124f8575f5ffd5b505af115801561250a573d5f5f3e3d5ffd5b50505050816001600160a01b03167f1d9938520c17ffed9a7f1a4489b2bdb04e5570305d789b904cccb81ba0e2d1b682604051611c6391815260200190565b5f600754610100900460ff16600381111561256657612566612e9a565b146125cb5760405162461bcd60e51b815260206004820152602f60248201527f4c656e64696e67436972636c653a20436972636c65206e6f742061636365707460448201526e696e67206e6577206d656d6265727360881b60648201526084016107f2565b6005546009541061261e5760405162461bcd60e51b815260206004820152601d60248201527f4c656e64696e67436972636c653a20436972636c652069732066756c6c00000060448201526064016107f2565b335f908152600e6020526040902054600160a01b900460ff16156126905760405162461bcd60e51b8152602060048201526024808201527f4c656e64696e67436972636c653a20416c7265616479206120706172746963696044820152631c185b9d60e21b60648201526084016107f2565b5f546001600160a01b031633036127015760405162461bcd60e51b815260206004820152602f60248201527f4c656e64696e67436972636c653a2043726561746f7220697320616c7265616460448201526e1e4818481c185c9d1a58da5c185b9d608a1b60648201526084016107f2565b335f818152600e6020526040812080546001600160a01b03199081168417909155600f80546001810182559083527f8d1108e10bcb7c27dddfc02ed9d693a074039d026cf4ea4240b40f7d581ac802018054909116909217909155600980549161276a83613085565b9091555050600c5460405163710cf95b60e01b81523360048201526001600160a01b039091169063710cf95b906024015f604051808303815f87803b1580156127b1575f5ffd5b505af11580156127c3573d5f5f3e3d5ffd5b50506040513392507f6cd71e167cab47cb2ccb763aada102691b585b848adb6395f1da4ac187b9214a91505f90a2565b5f6127fc612991565b905090565b5f8181526010602052604081206003810154820361282157505f92915050565b5f8080805b6003850154811015612986575f85600301828154811061284857612848613174565b5f9182526020808320909101546001600160a01b031680835260028901909152604090912060038101549192509060ff1661288457505061297e565b6001600160a01b0382165f908152600e6020526040902054600160a81b900460ff16156128b257505061297e565b6001600160a01b0382165f908152600e6020526040902054600160b01b900460ff16156128e057505061297e565b6002810154600c5460405163d3dd2bdf60e01b81526001600160a01b0385811660048301525f92169063d3dd2bdf90602401602060405180830381865afa15801561292d573d5f5f3e3d5ffd5b505050506040513d601f19601f820116820180604052508101906129519190613025565b90508682118061296a5750868214801561296a57508581115b15612979578397508196508095505b505050505b600101612826565b509195945050505050565b5f80805b600f54811015612a4d57600e5f600f83815481106129b5576129b5613174565b5f9182526020808320909101546001600160a01b0316835282019290925260400190205460ff600160a01b909104168015612a325750600e5f600f8381548110612a0157612a01613174565b5f9182526020808320909101546001600160a01b0316835282019290925260400190205460ff600160b01b90910416155b15612a455781612a4181613085565b9250505b600101612995565b50919050565b5f612a5c612991565b9050805f03612a69575050565b5f60646006546064612a7b919061303c565b600254612a88919061304f565b612a929190613066565b90505f612a9f838361304f565b905080600a541115612bd7575f81600a54612aba919061303c565b90505f612ac78583613066565b90505f5b600f54811015612b84575f600f8281548110612ae957612ae9613174565b5f9182526020808320909101546001600160a01b0316808352600e90915260409091205490915060ff600160a01b909104168015612b4657506001600160a01b0381165f908152600e6020526040902054600160b01b900460ff16155b15612b7b576001600160a01b0381165f908152600e602052604081206001018054859290612b75908490612e0b565b90915550505b50600101612acb565b5081600a5f828254612b96919061303c565b909155505060408051878152602081018490527f7e29e5eed08ff706e3ac2be56b731330d78fb52552c5bc4cefb205321961f05c910160405180910390a150505b50505050565b6007805461ff0019166102001790555f5b600f54811015612d2257600e5f600f8381548110612c0e57612c0e613174565b5f9182526020808320909101546001600160a01b0316835282019290925260400190205460ff600160a01b909104168015612c8b5750600e5f600f8381548110612c5a57612c5a613174565b5f9182526020808320909101546001600160a01b0316835282019290925260400190205460ff600160b01b90910416155b15612d1a57600c54600f80546001600160a01b0390921691631fb2ba44919084908110612cba57612cba613174565b5f9182526020909120015460405160e083901b6001600160e01b03191681526001600160a01b0390911660048201526024015f604051808303815f87803b158015612d03575f5ffd5b505af1158015612d15573d5f5f3e3d5ffd5b505050505b600101612bee565b506040517fdf90819e1122eef4a1d19215dfe6aa85aa2f8a1c60e53ae52143e1fd6c5f3bee905f90a1565b6004546009541015612db05760405162461bcd60e51b815260206004820152602660248201527f4c656e64696e67436972636c653a204e6f7420656e6f756768207061727469636044820152656970616e747360d01b60648201526084016107f2565b6007805461ff0019166101001790556009546040519081527faa8b7289f77c0a8b226248e26401151f4903884ab85ba3decb12926f4c7c3acc9060200160405180910390a1565b634e487b7160e01b5f52601160045260245ffd5b80820180821115610bb557610bb5612df7565b80356001600160a01b0381168114612e34575f5ffd5b919050565b5f5f60408385031215612e4a575f5ffd5b82359150612e5a60208401612e1e565b90509250929050565b5f60208284031215612e73575f5ffd5b612e7c82612e1e565b9392505050565b5f60208284031215612e93575f5ffd5b5035919050565b634e487b7160e01b5f52602160045260245ffd5b6020810160048310612ec257612ec2612e9a565b91905290565b6020810160028310612ec257612ec2612e9a565b602080825282518282018190525f918401906040840190835b81811015612f1c5783516001600160a01b0316835260209384019390920191600101612ef5565b509095945050505050565b5f5f60408385031215612f38575f5ffd5b612f4183612e1e565b946020939093013593505050565b60208082526030908201527f4c656e64696e67436972636c653a204f6e6c792061637469766520706172746960408201526f18da5c185b9d1cc818d85b8818d85b1b60821b606082015260800190565b60208082526024908201527f4c656e64696e67436972636c653a20436972636c65206d7573742062652061636040820152637469766560e01b606082015260800190565b60208082526022908201527f4c656e64696e67436972636c653a20566f74696e6720706572696f6420656e64604082015261195960f21b606082015260800190565b5f60208284031215613035575f5ffd5b5051919050565b81810381811115610bb557610bb5612df7565b8082028115828204841417610bb557610bb5612df7565b5f8261308057634e487b7160e01b5f52601260045260245ffd5b500490565b5f6001820161309657613096612df7565b5060010190565b60208082526028908201527f4c656e64696e67436972636c653a204f6e6c7920636f6f7264696e61746f722060408201526718d85b8818d85b1b60c21b606082015260800190565b6020808252602b908201527f4c656e64696e67436972636c653a20436972636c65206e6f7420696e2070656e60408201526a64696e672073746174757360a81b606082015260800190565b60208082526024908201527f4c656e64696e67436972636c653a205061727469636970616e74206e6f7420666040820152631bdd5b9960e21b606082015260800190565b634e487b7160e01b5f52603260045260245ffd5b634e487b7160e01b5f52603160045260245ffd5b5f816131aa576131aa612df7565b505f19019056fea2646970667358221220eccf412266f4420e722dc0c3369b0756eabda9cc3ad1e5ab41c741d0ae0c742864736f6c634300081c0033a2646970667358221220e70dd1a00f94ed5d70105b8c38efa1bf2424b36815064cc0f036c09cea766ce564736f6c634300081c0033",
  "linkReferences": {},
  "deployedLinkReferences": {},
  "immutableReferences": {},
  "inputSourceName": "project/contracts/LendingCircleFactory.sol",
  "buildInfoId": "solc-0_8_28-f86775fe193af4fa56a2f93fc95b5a864ee83756"
}